:0203BD00C10875
:10002600E50CB42D04D2088002C2087F04EFFD332C
:1000360095E0FCC3ED940BEC64809480501A74092F
:100046002FF8E6B43012740A2FF8E6642E600974AD
:10005600092FF876200F80D57F0BE4FEEEFD339551
:10006600E0FCD3ED9405EC64809480501E74092F57
:10007600F8E6FDB42E08C3740B9FF51A800AC37404
:10008600059E2423F8A6050E1F80D17F0BE4FEEF04
:10009600FD3395E0FCD3ED9400EC64809480400D34
:1000A60074092FF8E6642E60041F0E80E2EE24FE2B
:1000B60060101460101460101460102404700FD2C5
:1000C6000022D20122D20222D20322D20422C2006C
:0800D600C201C202C203C20410
:0100DE0022FF
:0D03BF00C100C101C102C103C1040122003F
:0D03E700C291C290C293C292C295C29422EC
:10037E00E4FFEFC3940674809480500974232FF821
:0F038E0076200F80EDC200C201C202C203C2047A
:01039D00223D
:10033300EF9001F893FF30E004D2A38002C2A3EF51
:1003430030E104D2A48002C2A4EF30E204D2A78039
:1003530002C2A7EF30E304D2A68002C2A6EF30E4C4
:1003630004D2A58002C2A5EF30E504D2A18002C267
:0A037300A1EF30E603D2A022C2A0E1
:01037D00225D
:1002780074232522F8E6FF120333D2A2E522603761
:1002880014602B14601F146013146007147034D2A8
:10029800918030D29030002BC2A28027D2933001B7
:1002A80022C2A2801ED292300219C2A28015D29513
:1002B800300310C2A2800CD294300402C2A23008CB
:0D02C80002C2A00522E52264067002F522A4
:0102D5002206
:10039E00C200C201C202C203C204752320752448E2
:0F03AE0075254575264C75274C75284FC20822BA
:1001F800FFFFFFFFFFFFFFFFFFFFFFFFFFFFFFFF07
:10020800FFFFFFFFFFFFFFFFFFFFFFFFFFFFFFFFF6
:10021800FFFFFFFFFFFFFFFFFFFFFFFFFFBFFFFF26
:10022800C0F9A4B0999282F88090FFFFFFBFFFFF4A
:10023800008883C6A1868EC289FBD185C7AAABA3D5
:100248008C98AF9287C1E295C991E4FFFFBFFFFF89
:10025800008883C6A1868EC289FBD185C7AAABA3B5
:100268008C98AF9287C1E295C991E4FFFFBFFFFF69
:0B03F40012039E1203D812000E80FEC0
:0903CC00C106C105C107011900B9
:10000E0043892053877F759850758DF443A890D2FD
:02001E008E2230
:030023000200DFF9
:1000DF00C0E0C0F0C083C082C0D075D000C000C0E7
:0D00EF0001C002C003C004C005C006C00768
:1000FC00C298E599547FFF30062074092508F8A6AC
:10010C00070508EF640D7006C206F508D207E5086E
:10011C0064107031C206F508802BEFFD7C00640D75
:10012C007006F508D207801D300716ED640A4C7076
:10013C0010F508D206C207F51912037E12002680AC
:05014C0004C206C20719
:10015100D007D006D005D004D003D002D001D00002
:0B016100D0D0D082D083D0F0D0E032AC
:0203D500C1095C
:0F03D800758CFC758A6543890143A882D28C22FB
:03000B000202D618
:1002D600C0E0C0F0C083C082C0D075D000C000C0EE
:0D02E60001C002C003C004C005C006C0076F
:1002F3001203E70519E519F4700312039E20090A96
:10030300758CFF758A76D209800B120278758CFC86
:05031300758A65C209B6
:10031800D007D006D005D004D003D002D001D00039
:0B032800D0D0D082D083D0F0D0E032E3
:0300000002016C8E
:0C016C00787FE4F6D8FD7581280201B30D
:100178000203F4E493A3F8E493A34003F68001F2A6
:1001880008DFF48029E493A3F85407240CC8C33388
:10019800C4540F4420C8834004F456800146F6DF57
:1001A800E4800B01020408102040809003BDE47E27
:1001B800019360BCA3FF543F30E509541FFEE4934C
:1001C800A360010ECF54C025E060A840B8E493A313
:1001D800FAE493A3F8E493A3C8C582C8CAC583CA3E
:1001E800F0A3C8C582C8CAC583CADFE9DEE780BEF6
:0103D7000025
:00000001FF
